S02A00004C5546415F50524F4A454354535F4156524953504D4B49495F42455441424F4152442E73726563C8
S113000015C100002FC100002DC100002BC100004C
S113001029C1000027C1000025C1000023C1000040
S113002021C100001FC100000C946A151BC100000F
S113003019C1000017C1000015C1000013C1000060
S113004011C1000071C700000DC100000BC1000008
S113005009C100000C94320905C1000003C100006D
S113006001C10000FFC00000FDC00000FBC0000093
S1130070F9C00000F7C00000F5C00000F3C00000A4
S1130080F1C00000EFC00000EDC00000EBC00000B4
S1130090E9C00000E7C00000E5C00000E3C00000C4
S11300A0E1C00000DFC00000DDC000001803410013
S11300B05600520049005300500020006D006B00B0
S11300C04900490000000C03410054004D00450064
S11300D04C0000000403090412011001FF00001089
S11300E0EB03042100020102030109000A000A00D3
S11300F00B000C000D000D000E000F00100010008E
S11301001200130013001400160016001800190042
S11301101A001C001D001F002000220023002500DF
S1130120270029002B002E00300032003400370055
S11301303A003D004000430046004A004E00520091
S113014055005A005E00630068006D00730078007B
S11301507E0084008B0091009900A000A900B100EA
S1130160B900C300CC00D600E100EC00F7000401A4
S113017011011E012D013B014B015B016C017D014D
S11301809101A501BA01CF01E601FE011602310277
S11301904C026A028802A802CA02ED021103380363
S11301A060038B03B803E70318044B048104B90408
S11301B0F50434057505B90501064E069D06EF06DE
S11301C04807A30704086508D0084009B6092B0AA4
S11301D0AB0A300BC30B510CEE0C8F0D400EF60E18
S11301E0AF0F681047111412F512ED13E214F01555
S11301F0F9161B185C19911AE51B251D831E032093
S1130200AB21302332250F27F128F82A1A2D492F44
S1130210A1311434A1364539173C1A3F34426045A4
S1130220DF48704C400041014243030011241FBECB
S1130230CFEFDAE0DEBFCDBF11E0A0E0B1E0E6EE43
S1130240FEE202C005900D92A038B107D9F721E073
S1130250A0E8B1E001C01D92A339B207E1F752D082
S11302600C947117CDCE84B7877F84BF0FB6F894F2
S1130270A89580916000886180936000109260006E
S11302800FBE90E080E80FB6F894809361009093DD
S113029061000FBE8AB1806F8AB98BB18F708BB940
S11302A00C944C1508958BB18F7080638BB90895AD
S11302B08BB18F7080618BB9089542E360E882E06E
S11302C00E949B14811102C090E101C090E28BB1A5
S11302D08F70892B8BB908958EB3843091F40E946A
S11302E0E30A82E08093E9008091E80082FF09C07C
S11302F08BB18F7080638BB9D3D78BB18F708062D1
S11303008BB90895B0DFC3D78BB18F7080618BB97F
S11303107894E2DF0E943E17FCCF01C00895F901F2
S11303201082692F77276230710561F0633071059F
S113033089F06130710509F03BC082E190E028ED5D
S113034030E03FC082E0F901808380E290E02EE15A
S113035031E037C099278130910581F01CF4892B55
S113036039F02BC08230910579F0039799F025C0BC
S1130370E4EDF0E0849190E09F0123C0E6ECF0E02E
S1130380849190E09F011DC0ECEAF0E0849190E03C
S11303909F0117C0E0E0F1E0808190E062E370E04B
S11303A07787668762E0F901608320E031E009C065
S11303B080E090E020E030E004C080E090E020E0C5
S11303C030E0FA013183208308952F923F924F92B7
S11303D05F926F927F928F929F92AF92BF92CF92D1
S11303E0DF92EF92FF920F931F93CF93DF93CDB7DA
S11303F0DEB7CD50D1400FB6F894DEBF0FBECDBFEF
S1130400B82E40E050E069E070E0CE0101960E9411
S113041032126A8179817A836983613021E07207BB
S1130420B0F0E8EEF0E080818B77808382E0809307
S1130430E900ACEEB0E08C9181608C93A1EFB0E068
S1130440BC9280EC8C9380818E77808385C140E060
S113045050E0CE010A960E94321289819A810A964E
S11304608F739927892B39F4E8EEF0E080818B773C
S113047080830E94D114E8EEF0E080818B77808342
S113048082E08093E900ECEEF0E08081816080837B
S113049033E1B31202C0A88401C0A984809184010D
S11304A090918501A0918601B0918701C65FDE4FCE
S11304B088839983AA83BB83CA50D14089819A8156
S11304C0892B09F4BFC04E019AE0890E911CE12CDE
S11304D0F12CC12CD12C0F2EF4E86F2EF1E07F2EDD
S11304E0F02D6894222423F833243394412C512C86
S11304F0D4010D914D011B8180918301882319F052
S113050013D6109283018D8190913E01992329F095
S11305108EBD0DB407FEFDCF01C09FD5809184012F
S113052090918501A0918601B0918701892F9A2F1E
S1130530AB2FBB2720913E01222329F08EBD0DB4A1
S113054007FEFDCF01C089D5F301808190913E0162
S1130550992329F08EBD0DB407FEFDCF01C07DD5D2
S113056080913E01882329F00EBD0DB407FEFDCF16
S113057002C0802F72D5F3E1BF1203C08D818225A2
S11305808D83C114D10409F0D0C0A01609F4CAC0E7
S1130590E0FE0DC023E1B2120AC08F8188608F8310
S11305A0D3018D919C9110FF0AC06C0122C08F81F0
S11305B0877F8F83F3018081918110FD13C00097A1
S11305C029F413FD04C0197F126001C06C010F816E
S11305D02C814A2DB601812FDFD5811136C0C42C60
S11305E0D52C01C06C01E0FC04C0F5E1BF121FC0B2
S11305F09FC08091840190918501A0918601B09162
S113060087010196A11DB11D8093840190938501FA
S1130610A0938601B093870123E1B21208C0AA27F0
S1130620BB27892B8A2B8B2B11F4309283013FEF4C
S1130630E31AF30A89819A81E816F90608F458CF77
S113064080E003C0C12CD12C80E09B8199230CF065
S11306505FC08E8190913E01992329F08EBD0DB427
S113066007FEFDCF01C0F9D4C65FDE4FA881B98172
S1130670CA50D1408B2F992720913E01222329F083
S11306808EBD0DB407FEFDCF01C0E7D480913E01BD
S1130690882351F0C65FDE4FB881CA50D140BEBD39
S11306A00DB407FEFDCF06C0C65FDE4F8881CA5079
S11306B0D140D3D480913E01882329F01EBC0DB4CF
S11306C007FEFDCF02C080E0C8D48B8185FF06C041
S11306D0C114D10419F48F7C80618B830F812C8128
S11306E04A2DB6018B8158D5E3E1BE1211C0409169
S11306F0840150918501609186017091870166277C
S11307007727452B462B472B19F491E090938301CF
S1130710E1EFF0E0B0828083E8EEF0E080818E7754
S113072080831AC010FF4DCF5ECF10FF50CF5BCF38
S11307308091840190918501A0918601B0918701F7
S11307400196A11DB11D8093840190938501A0930E
S11307508601B09387016BCFC35FDE4F0FB6F89469
S1130760DEBF0FBECDBFDF91CF911F910F91FF90E0
S1130770EF90DF90CF90BF90AF909F908F907F903D
S11307806F905F904F903F902F9008957F928F923B
S11307909F92AF92BF92CF92DF92EF92FF920F930C
S11307A01F93CF93DF9300D01F92CDB7DEB7982E5F
S11307B040E050E063E070E0CE0101960E94321206
S11307C089819A8199838A83E8EEF0E080818B772E
S11307D0808382E08093E900ECEEF0E08081816028
S11307E08083E1EFF0E09082108289819A81892BE5
S11307F009F497C000E010E00F2EF4E8AF2EF1E00A
S1130800BF2EF02D0F2EF1EFCF2ED12CF02D0F2E69
S1130810F8EEEF2EF12CF02D77247394689488244D
S113082083F880918301882319F07ED41092830188
S11308308B8190913E01992329F08EBD0DB407FE62
S1130840FDCF01C00AD48091840190918501A091CB
S11308508601B0918701892F9A2FAB2FBB27209156
S11308603E01222329F08EBD0DB407FEFDCF01C049
S1130870F4D3F501808190913E01992329F08EBD36
S11308800DB407FEFDCF01C0E8D380913E0188235B
S113089031F01EBC0DB407FEFDCF8EB502C080E062
S11308A0DCD3F6018083F701808185FD05C080815A
S11308B08E7780830E94D114F4E19F1206C08B814D
S11308C088258B8300FD41C024C000FD04C026E1BF
S11308D092121FC04EC08091840190918501A09115
S11308E08601B09187010196A11DB11D80938401F9
S11308F090938501A0938601B0938701E6E19E164B
S113090041F0AA27BB27892B8A2B8B2B11F47092D9
S113091083010F5F1F4F89819A810817190708F413
S113092080CF1092F100E8EEF0E0908180818E7724
S1130930808395FD32C00E94D114E8EEF0E08081FE
S11309408E7780830E94D11428C080918401909175
S11309508501A0918601B09187010196A11DB11D69
S11309608093840190938501A0938601B0938701BD
S1130970C8CF8091840190918501A0918601B091A6
S113098087010196A11DB11D809384019093850177
S1130990A0938601B0938701BCCF0F900F900F9066
S11309A0DF91CF911F910F91FF90EF90DF90CF9047
S11309B0BF90AF909F908F907F900895BF92CF92F9
S11309C0DF92EF92FF920F931F93CF93DF93CDB7F4
S11309D0DEB729970FB6F894DEBF0FBECDBFB82E91
S11309E040E050E065E070E0CE0101960E943212D2
S11309F0E8EEF0E090819B77908382E08093E900B9
S1130A00ECEEF0E09081916090838E010E5F1F4FB9
S1130A107E0186E0E80EF11C6701F80181918F01E7
S1130A2090913E01992331F08EBD0DB407FEFDCFA8
S1130A308EB501C012D3F70181937F010C151D05FA
S1130A4061F7E1EFF0E0B08210828981DE01A80F46
S1130A50B11D15968C9180831082E8EEF0E08081C0
S1130A608E77808329960FB6F894DEBF0FBECDBF74
S1130A70DF91CF911F910F91FF90EF90DF90CF9076
S1130A80BF900895DF92EF92FF920F931F93CF933D
S1130A90DF9300D000D0CDB7DEB7D82E40E050E0D1
S1130AA064E070E0CE0101960E943212E8EEF0E0BC
S1130AB090819B77908382E08093E900ECEEF0E0F4
S1130AC09081916090838E010F5F1F4F7E0185E0BE
S1130AD0E80EF11CF80181918F0190913E01992358
S1130AE029F08EBD0DB407FEFDCF01C0B6D20E15A0
S1130AF01F0581F7E1EFF0E0D08210821082E8EE6A
S1130B00F0E080818E7780830F900F900F900F908C
S1130B10DF91CF911F910F91FF90EF90DF90089597
S1130B20BF92CF92DF92EF92FF920F931F93CF93D6
S1130B30DF93CDB7DEB7C250D1400FB6F894DEBF15
S1130B400FBECDBF40E050E063E070E0CE010196FF
S1130B500E943212698170E040E050E0CE010496B8
S1130B600E943212E8EEF0E080818B77808382E08D
S1130B708093E900ECEEF0E0808181608083E1EF16
S1130B80F0E08DE1808310828B81882331F110E0C5
S1130B908981181790F4E4E0F0E0EC0FFD1FE10FF9
S1130BA0F11D808190913E01992329F08EBD0DB4F1
S1130BB007FEFDCF0DC051D20BC080913E018823AA
S1130BC029F01EBC0DB407FEFDCF02C080E045D263
S1130BD01F5F8B811817E0F201C010E08A8188231F
S1130BE009F442C000E00F2EF1EFCF2ED12CF02DEE
S1130BF00F2EF8EEEF2EF12CF02D89811817C8F482
S1130C00BB24B394B10EE4E0F0E0EC0FFD1FE10F60
S1130C10F11D808190913E01992331F08EBD0DB478
S1130C2007FEFDCF8EB501C018D2F60180831B2DBF
S1130C300EC080913E01882331F01EBC0DB407FE26
S1130C40FDCF8EB502C080E008D2F6018083F701A3
S1130C50808185FD05C080818E7780830E94D114B8
S1130C600F5F8A81081748F21092F100E8EEF0E075
S1130C70908180818E77808395FD09C00E94D11474
S1130C80E8EEF0E080818E7780830E94D114CE5FFD
S1130C90DE4F0FB6F894DEBF0FBECDBFDF91CF910C
S1130CA01F910F91FF90EF90DF90CF90BF90089528
S1130CB0882381F09AB5992369F08250EFE9FFE027
S1130CC03197F1F700C000008F3F21F09AB58150B1
S1130CD09111F4CF0895CF92DF92EF92FF920F9388
S1130CE01F93CF93DF93CDB7DEB72F970FB6F8944A
S1130CF0DEBF0FBECDBF40E050E06BE070E0CE0140
S1130D0001960E943212E8EEF0E080818B778083B6
S1130D1082E08093E900ECEEF0E0808181608083E2
S1130D20109284011092850110928601109287011D
S1130D308B81BEDF68D181E0AFD18A81B9DF8C813C
S1130D409FEF980F9C83882309F446C08AB58111CC
S1130D5039C080EC46C08D81ABDFF80181918F01F1
S1130D6090913E01992331F08EBD0DB407FEFDCF65
S1130D708EB501C072D1F70181937F010C151D0559
S1130D8051F78F81882351F0EBE0F0E0EC0FFD1F69
S1130D90E80FF11D90818E81981302C080E021C07C
S1130DA080E07AD18A8184DF81E076D18A8180DF14
S1130DB08C819FEF980F9C83882381F08AB58111E1
S1130DC004C00EC0CE010C966C018E01085F1F4F4B
S1130DD0FE013C967F01BFCF80EC03C080EC01C0D4
S1130DE080ECE1EFF0E090E190838083E8EEF0E0C6
S1130DF080818E7780832F960FB6F894DEBF0FBE66
S1130E00CDBFDF91CF911F910F91FF90EF90DF90B5
S1130E10CF9008950F931F93CF93DF9300D0CDB756
S1130E20DEB740E050E062E070E0CE0101960E943F
S1130E30321208EE10E0F80180818B77808382E023
S1130E408093E900ECEEF0E0808181608083898109
S1130E502FDF80E021D1AAD08A812ADFE1EFF0E000
S1130E6081E180831082F80180818E7780830F90E6
S1130E700F90DF91CF911F910F910895EF92FF9200
S1130E800F931F93CF93DF9300D000D000D0CDB742
S1130E90DEB740E050E066E070E0CE0101960E94CB
S1130EA03212E8EEF0E080818B77808382E08093D9
S1130EB0E900ECEEF0E08081816080838E010D5FBB
S1130EC01F4F7E0187E0E80EF11CF80181918F012C
S1130ED090913E01992329F08EBD0DB407FEFDCFFC
S1130EE001C0BBD00E151F0581F78A81811104C092
S1130EF08981DEDE80E001C0DDD0E1EFF0E092E147
S1130F0090838083E8EEF0E080818E77808326965C
S1130F100FB6F894DEBF0FBECDBFDF91CF911F9106
S1130F200F91FF90EF9008951F920F920FB60F92BA
S1130F3011248F93199908C080918101882314F496
S1130F402A9A19C02A9817C080918101880F80932A
S1130F50810180918001815080938001811104C0BE
S1130F601092810082E086BB1B9B05C080918101A9
S1130F70816080938101199A8F910F900FBE0F9019
S1130F801F901895259A10926F0010928500109268
S1130F90840081E090E0909389008093880080E44D
S1130FA08093800089E080938100089580913E01C0
S1130FB0882349F084B1897F84B985B1867F85B956
S1130FC01CBC1DBC089584B1897F84B985B1867F1A
S1130FD085B9D8CF089592E090936F001092850060
S1130FE010928400E82FF0E0EE0FFF1FE452FF4F51
S1130FF08591949190938900809388001092800049
S113100010928100089588E9E7D28730E0F491E0F6
S113101090933E01E82FF0E0EC5DFD4FE491209ABF
S1131020289A84B1866084B923982B9AE6FF04C079
S11310308DB581608DBD03C08DB58E7F8DBD20982B
S1131040E065ECBD089510923E0194B1966094B9A8
S113105095B1996095B9BFCF08958093810188E0D7
S11310608093800180918101882314F42A9A01C01D
S11310702A9810928500109284008AE0809381005F
S113108080918001882319F08AB58111F9CF1092DB
S11310908100809181010895882349F0249A8EE982
S11310A09BD2811102C02C9A08952C9808952498FB
S11310B02C98089580913E01882331F080EF8EBDF5
S11310C00DB407FEFDCF02C080EFC7DF80913E0163
S11310D0882329F01EBC0DB407FEFDCF02C080E0BA
S11310E0BCDF80913E01882329F01EBC0DB407FEAD
S11310F0FDCF02C080E0B1DF80913E01882331F052
S11311001EBC0DB407FEFDCF8EB502C080E0A5DF86
S113111080FF03C08AB58111CDCF8AB5811102C089
S113112081E8089580E0089580913E01882331F09C
S11311308DE48EBD0DB407FEFDCF02C08DE48DDFBE
S113114080913E01882329F01EBC0DB407FEFDCF1B
S113115002C080E082DF8091840190918501A0919A
S11311608601B0918701CD01AA27BB2720913E01BA
S1131170222329F08EBD0DB407FEFDCF01C06DDF23
S113118080913E01882329F01EBC0DB407FEFDCFDB
S1131190089580E062CF08950F931F93CF93DF9358
S11311A0162FD42F8E77E82FF0E0E830F10509F4FC
S11311B04DC034F4E230F10569F0349779F048C059
S11311C0E032F10559F0E034F10509F43FC07097BD
S11311D009F03EC0822F6CDD80E03DC0C72F9091A6
S11311E03E01992329F00EBD0DB407FEFDCF02C0C8
S11311F0802F33DF90913E01992329F0CEBD0DB4A9
S113120007FEFDCF02C08C2F28DF90913E01992369
S113121029F01EBD0DB407FEFDCF02C0812F1DDFD6
S113122090913E01992331F01EBC0DB407FEFDCF11
S11312308EB502C080E011DFD81303C09AB59111B6
S1131240CECF8AB5811106C080E805C033DF03C064
S113125080E001C080E094E69ABDDF91CF911F91B8
S11312600F91089578941F920F920FB60F92112444
S11312708F938AB5882321F08AB581508ABD01C035
S113128015BC8F910F900FBE0F901F9018958BE98E
S113129087BD82E084BD80936E007AD173CE0895B9
S11312A0CF92DF92EF92FF920F931F93CF93DF932E
S11312B0C091F10084E68ABD85E085BDC43109F49E
S11312C0E5C0F8F4CA3009F4C3C060F4C43030F4A3
S11312D0C23008F05CC0C130D1F12EC0C63009F470
S11312E08AC02AC0C13109F4CBC020F4C03109F44A
S11312F0C5C022C0C23109F4CCC0C33109F4C2C094
S11313001BC0C93109F4CAC060F4C63109F4BEC0B7
S113131008F4B8C0C73109F4C1C0C83109F4BBC06E
S11313200BC0CD3109F4BDC008F4B5C0C03509F413
S1131330BCC0C13509F4B7C02091F3008091F2001C
S113134090E0922B8034910509F4B1C0CBC0C8EE73
S1131350D0E088818B77888382E08093E900ECEE8B
S1131360F0E0808181608083E1EFF0E081E08083C0
S113137010828AE0808340E050E06AE070E085E714
S113138091E00E94D51188818E778883C0C0D09166
S1131390F100C23009F0C7C0E1EFF0E0C081A8EE6F
S11313A0B0E08C918B778C9392E09093E900ACEE53
S11313B0B0E08C9181608C9390838D2F05D181FF57
S11313C011C01092F1006C2F8D2F0ED10EC080FF32
S11313D009C001EF10E0F80110828D2FFDD0F80153
S11313E0808303C080EC8093F100E8EEF0E080811C
S11313F08E7780838CC040E050E064E070E084E845
S113140091E00E948F12E8EEF0E080818B77808378
S113141082E08093E900ECEEF0E0808181608083DB
S11314208091840190918501A0918601B0918701FA
S1131430BB231CF481E080938301E1EFF0E086E0BC
S113144080831082E8EEF0E080818E7780835FC035
S1131450E8EEF0E080818B77808382E08093E9007E
S1131460ACEEB0E08C9181608C93A1EFB0E08AE0A7
S11314708C931C9280818E77808349C02CDC47C07A
S1131480C9DC45C08C2F0E94E50141C08C2F7ED958
S11314903EC0F4DC3CC08C2F91DA39C08C2FF2DAD8
S11314A036C03EDB34C013D532C041D530C008EE5F
S11314B010E00F2EF3EFCF2ED12CF02D0F2EF2EFE4
S11314C0EF2EF12CF02DF80180818B7780830E9420
S11314D0D114F6012081F701808190E0922B8034B1
S11314E0910589F3E8EEF0E080818B77808382E0D8
S11314F08093E900ACEEB0E08C9181608C93A1EF15
S1131500B0E0CC9389EC8C9380818E77808315BC7A
S11315100E94D11482E08093E900ECEEF0E0808137
S11315208E7F808315C0E8EEF0E090819B779083F6
S113153082E08093E900ECEEF0E09081916090838A
S1131540C093F1008D2F40D0C33009F04BCF3FCF73
S1131550DF91CF911F910F91FF90EF90DF90CF908B
S1131560089590913F01981731F0E2E4F1E0908101
S1131570981306C002C0EFE3F1E08E2F9F2F089569
S1131580339691E0ED35F90791F780E090E0089506
S1131590CF93DF9381E090E00E945717D82F80E02B
S11315A090E00E945717C82FDF3F21F08EE9D9DF62
S11315B0FC01D283CF3F21F088E9D3DFFC01C28351
S11315C0DF91CF9108950895CCDF009719F0FC01C5
S11315D08181089580E00895C4DF009719F0FC012B
S11315E08281089580E00895CF93DF93C82FD62F8A
S11315F0B8DF009789F0FC01D283CE3931F46D2F26
S113160081E090E00E945F1707C0C83929F46D2F6C
S113161080E090E00E945F17DF91CF910895982FAA
S11316209F7090698073880F892B53C60895CF9358
S1131630DF93D82FC92F88E64CD68D2F4AD689E65A
S113164048D68C2F46D6DF91CF91089580E841D6B5
S113165055D69AB5992321F081FFF8CF81E00895FA
S113166080E0089590915D01892F8F70806190735F
S1131670990F892B2ED642D69AB5992321F0882327
S11316808CF381E0089580E00895CF92DF92FF9279
S11316900F931F93CF93DF93CDB7DEB728970FB681
S11316A0F894DEBF0FBECDBF63D682EC12D682E0C3
S11316B010D680EE0ED68E01075F1F4FCE01019625
S11316C06C016894FF24F3F8E5E6F1E0DE0111967D
S11316D08F2D01900D928A95E1F7F80182918F0187
S11316E0F8D50C151D0581F7B1DF28960FB6F894CF
S11316F0DEBF0FBECDBFDF91CF911F910F91FF9041
S1131700DF90CF900895A2DF80ECE3D580E0E1D5AF
S113171080E8DFD5F3D58111F7CFC5C50895EF92E1
S1131720FF920F931F93CF93DF938C01E62EF72E36
S1131730EA0198DF882301F180915E0170DF80E087
S1131740C8D5C80174DF209791F08AB5882379F051
S11317500E2D1F2D84E2BDD5D1D5F80181938F01C3
S1131760C130D10521F08AB521978111F3CF9AB503
S113177081E0911101C080E0DF91CF911F910F9121
S1131780FF90EF900895CF92DF92FF920F931F93F3
S1131790CF93DF936C01EB018A0164DFF82E882379
S11317A029F100FF07C0FE01E00FF11F8FEF8083D6
S11317B00F5F1F4F80915E0132DF8DE18AD5C60134
S11317C036DF0115110591F04DDFF82E882371F0F5
S11317D084E67FD588817DD584E67BD52296FE017B
S11317E03197808176D50250110971F78F2DDF91E1
S11317F0CF911F910F91FF90DF90CF9008951F9389
S1131800CF93DF93182FEB012DDF882369F08091AC
S11318105E0105DF812F5DD5CE01816008DF80E6A2
S113182058D580E056D51EDFDF91CF911F910895E2
S11318301F93CF93DF93172FD82FC92F862F49D506
S1131840812F47D58D2F45D58C2F43D5DF91CF914F
S11318501F9108950F931F9340916101509162016C
S113186060916301709164018A019B01082BC90195
S1131870B801DEDF1F910F91089580E82AD53ED587
S11318809AB5992321F081FFF8CF81E0089580E093
S113189008958BE61ED58FE0DDDF80E21AD52ED5C4
S11318A09AB5992321F08823C4F381E0089580E058
S11318B00895CF92DF92FF920F931F93CF93DF93FC
S11318C0CDB7DEB728970FB6F894DEBF0FBECDBFF5
S11318D033D581ECFED489E5FCD482ECFAD482E0E1
S11318E0F8D480EEF6D48E01075F1F4FCE01019627
S11318F06C016894FF24F3F8EDE6F1E0DE01119643
S11319008F2D01900D928A95E1F7F80182918F0154
S1131910E0D40C151D0581F7B0DF28960FB6F894B6
S1131920DEBF0FBECDBFDF91CF911F910F91FF900E
S1131930DF90CF900895A1DF81ECCBD480E0C9D4AF
S113194081E8C7D4DBD48111F7CF9BC408950F93EA
S11319501F93CF93DF93182FEB01188219821A82F9
S11319601B8297DF882351F18CE4B3D48AE072DFC1
S1131970812FAFD48CE4ADD48BE06CDF81E0A9D4AB
S11319807CDF8823D9F085DF8823C1F08BE6A1D4DE
S113199084E060DF80EA9DD482E09BD484E299D421
S11319A08E012396ABD4F80181938F01EC17FD07C8
S11319B0C9F79AB581E0911101C080E0DF91CF9120
S11319C01F910F910895CF92DF92EF92FF920F93A0
S11319D01F93CF93DF936B017C018A01E90159DFE7
S11319E0882309F433C08CE474D48AE033DF83E4BD
S11319F070D4C230D105E8F08BE66BD4C701B601D0
S1131A0017DF80EA66D48C2F815063D484E261D4DA
S1131A102097B9F08AB58823A1F070D4F801819396
S1131A208F01C130D10569F08AB521978111F5CFB5
S1131A3008C08CE04ED4C701B601FADE5FD4F801C9
S1131A4080839AB581E0911101C080E0DF91CF914C
S1131A501F910F91FF90EF90DF90CF900895CF9258
S1131A60DF92EF92FF921F93CF93DF93182F6A01B7
S1131A707B01D22F0EDFC82F882369F08CE429D490
S1131A808AE0E8DE812F25D48CE423D4C701B60193
S1131A90CFDE8D2F1ED48C2FDF91CF911F91FF901D
S1131AA0EF90DF90CF9008954F925F926F927F9264
S1131AB08F929F92AF92BF92CF92DF92EF92FF925A
S1131AC00F931F93CF93DF93882E962ED42FC22F7C
S1131AD02701380120FF11C0DCDE182F882309F408
S1131AE045C08CE4F6D38AE0B5DE892DF2D38CE4CC
S1131AF0F0D38BE0AFDE81E0ECD3A114B10409F1A3
S1131B00C8DE182F882309F431C08CE4E2D38AE0BC
S1131B10A1DE882DDED38BE6DCD3C301B20188DEDF
S1131B2080EAD7D38FEF8A0DD4D384E6D2D30C2D99
S1131B301D2DF80181918F01CCD3F1E0AF1AB108CA
S1131B40C1F7C1FF12C0A5DE182F882379F08CE4F9
S1131B50C0D38AE07FDE8D2FBCD38CE4BAD3C3011B
S1131B60B20166DE80E0B5D301C011E0812FDF91C0
S1131B70CF911F910F91FF90EF90DF90CF90BF9086
S1131B80AF909F908F907F906F905F904F9008954B
S1131B90CF92DF92EF92FF92CF93C82F6A017B011D
S1131BA078DE882309F463C0C03469F48CE491D3EB
S1131BB08AE050DE80E48DD38CE48BD38BE04ADE64
S1131BC081E087D353C0C03309F043C08CE481D390
S1131BD08AE040DE86E37DD38CE47BD38BE03ADE7F
S1131BE081E077D356DE882309F441C08CE471D3B5
S1131BF08AE030DE83E36DD38BE66BD3C701B60195
S1131C0017DE80EA66D380915F01815062D384E657
S1131C1060D380915F0190916001892B69F0C0E0ED
S1131C2080E057D3CF5F2C2F30E080915F019091FB
S1131C30600128173907A0F38CE44BD38AE00ADE4D
S1131C4080E347D38CE445D38BE004DE81E041D3C9
S1131C500DC08CE43ED38AE0FDDD8C2F3AD38CE4B6
S1131C6038D3C701B601E4DD80E033D306DECF917B
S1131C70FF90EF90DF90CF900895AF92BF92CF92F4
S1131C80DF92EF92FF920F931F93CF93DF93CDB721
S1131C90DEB7C850D1400FB6F894DEBF0FBECDBF3B
S1131CA040E050E068E070E0CE010196DBD38B8128
S1131CB03E819C812D813B832C839D838E837F81F8
S1131CC068856F83788740E050E0CE010996CAD3D7
S1131CD08F81988509968F739927892B31F4E8EEC3
S1131CE0F0E080818B7780835CD6E8EEF0E0808141
S1131CF08B77808382E08093E900ECEEF0E08081D2
S1131D00816080838091820181112FC08981833019
S1131D1009F44DC030F4813009F445C0823051F0EB
S1131D2011C0853029F008F446C0863039F00AC065
S1131D3088E042C066E283E24CE207C066E283E2E6
S1131D404AE103C066E283E24EE2AF80B884EB80EE
S1131D50FC800D811E819E01275F3F4F69012A810E
S1131D60A3DE882371F090E011C04F815885BE0135
S1131D70675F7F4F8B819C8106DD811104C093E0F6
S1131D8005C093E003C090E001C090E0E1EFF0E013
S1131D9080E5808384E080839083E8EEF0E08081B6
S1131DA08E77808313C066E283E244E2CECF66E39B
S1131DB083E345E3CACF8CE44B815C816D817E81F2
S1131DC029854DDE8111E1CF93E0E0CFC85FDE4F7E
S1131DD00FB6F894DEBF0FBECDBFDF91CF911F9138
S1131DE00F91FF90EF90DF90CF90BF90AF90089548
S1131DF0CF93DF93CDB7DEB7C750D1400FB6F89479
S1131E00DEBF0FBECDBF40E050E067E070E0CE0122
S1131E10019628D38A813D819B812C813A832B832F
S1131E209C838D838E819F819E838F83E8EEF0E077
S1131E3080818B77808382E08093E900ECEEF0E090
S1131E408081816080838091820181110DC02E8107
S1131E503F816A817B818C819D81AE01485F5F4FA8
S1131E60B2DD811112C020C04E815F81BE01685F66
S1131E707F4F8A819B8153DC811107C015C0E8EE36
S1131E80F0E080818E77808318C0E1EFF0E080E598
S1131E90808385E0808310826E817F8140E050E002
S1131EA0CE01089682D2EBCFE1EFF0E080E58083AB
S1131EB085E0808383E08083E2CFC95FDE4F0FB685
S1131EC0F894DEBF0FBECDBFDF91CF910895CF93BD
S1131ED0DF931F92CDB7DEB740E050E061E070E0E1
S1131EE0CE010196BFD2E8EEF0E080818B7780834B
S1131EF082E08093E900ECEEF0E0808181608083F1
S1131F0089818093820181E58093F1008981813008
S1131F1011F480EC01C080E08093F100E8EEF0E081
S1131F2080818E7780830F90DF91CF910895CF9336
S1131F30DF9300D000D000D0CDB7DEB78091F100A0
S1131F40843009F4C1C038F48230A1F108F053C0E0
S1131F50813051F062C1863009F4BAC008F4B6C0C9
S1131F60873009F4E5C059C1E8EEF0E080818B7751
S1131F70808382E08093E900ECEEF0E08081816070
S1131F80808380918201811102C093DC05C082307C
S1131F9011F47BDB01C080E0E1EFF0E020E5208379
S1131FA091E0908398279083E8EEF0E080818E772B
S1131FB0808333C1E8EEF0E080818B77808382E018
S1131FC08093E900ECEEF0E0808181608083809171
S1131FD08201811102C0AFDC01C095DBE1EFF0E0CA
S1131FE080E5808382E080831082E8EEF0E08081E7
S1131FF08E77808312C140E050E065E070E0CE014E
S1132000019630D28A813D819B812C813A832B8336
S11320109C838D83E8EEF0E080818B77808382E07F
S11320208093E900ECEEF0E0808181608083809110
S1132030820181112CC08981843099F030F482307E
S113204061F068F48130C9F016C0863071F058F040
S1132050873069F0883069F00EC080E20FC088E6EE
S11320600DC080E30BC082E209C08AE207C082E3AC
S113207005C088E103C080E001C080E44A815B813F
S11320806C817D8185DD81110FC093E010C0898151
S1132090813011F084E101C080E16A817B81AFDB92
S11320A0811104C093E003C090E001C090E0E1EF2F
S11320B0F0E080E5808383E080839083E8EEF0E0C5
S11320C080818E778083A9C0D8DDA7C091DEA5C0AA
S11320D040E050E061E070E0CE010696C3D1E8EE46
S11320E0F0E080818B77808382E08093E900ECEEDE
S11320F0F0E08081816080838091820181116CC0D5
S11321008E81813031F0823011F489E303C088E795
S113211001C088E3BE016F5F7F4F19DC811165C088
S113212083E05BC0E8EEF0E080818E77808375C049
S11321308091F100833029F128F4813041F082301C
S1132140B1F031C0843019F1853039F12CC0E1EFA0
S1132150F0E080819081208130813093610120936F
S11321606201909363018093640190E01DC0E1EFEC
S1132170F0E08081908190935F018093600190E012
S113218013C08091F10080935E0190E00DC08091B6
S1132190F10080935D0190E007C0E1EFF0E0808101
S11321A0808190E001C091E0E8EEF0E080818B77DF
S11321B0808382E08093E900ACEEB0E08C91816092
S11321C08C93A1EFB0E080E58C9387E08C939C9393
S11321D080818E77808321C081E0E1EFF0E090E59B
S11321E0908396E0908380839DCFE1EFF0E080E5DB
S11321F0808386E08083108289819A81AB81BC814F
S1132200CD01AA27BB27808389819A81AB81BC81B8
S11322108083892F9927808385CF26960FB6F894DB
S1132220DEBF0FBECDBFDF91CF9108954D99FECF94
S11322304D9BFECF4D99FECF5B9A539AE9ECF0E0AB
S113224080818F7E808380818860808381E0809319
S113225088010895E8ECF0E0808186FFFDCFE8EC8A
S1132260F0E0808180648083E9ECF0E08081877F06
S1132270808380818061808353985B981092880169
S11322800895809188018111E5DF80EC8093C80076
S11322901092C9001092CA008AB1877D8AB98BB1A5
S11322A0837D8BB90895809188018111D3DFE8EC97
S11322B0F0E08081806C80831092C9001092CA0083
S11322C08AB1877D8AB98BB1837D8BB924982C9888
S11322D00895CF93C82F80918801811101C0A6DF92
S11322E0E8ECF0E0908195FFFDCFE8ECF0E0908120
S11322F090649083C093CE00CF910895809188011B
S11323008111A8DFE8ECF0E0808188231CF08AB515
S11323108111FACF8091CE000895809188018111B6
S113232001C084DF8CE04D99FECF4D9BFECF4D99CB
S1132330FECF8150C1F70895109288018AB1886256
S11323408AB952985B9A8FE891E00197F1F700C03F
S1132350000083E090E09093CD008093CC0088E06F
S11323608093C9008FE68093CA00D7DFD6CF089543
S113237010928801249A2C988FE891E00197F1F744
S113238000C000008AB188628AB9529883E090E064
S11323909093CD008093CC0088E08093C9008FE6B1
S11323A08093CA00BADFB9CF08958F929F92AF92FB
S11323B0BF92CF92DF92EF92FF920F931F93CF932E
S11323C0DF938C01EB015A01ECD281113EC0A114C0
S11323D0B10439F0F50180819181C81BD90B080F34
S11323E0191F209789F1E12CF12C0F2EF8EE8F2E76
S11323F0912CF02D0F2EF1EFCF2ED12CF02DF401D6
S1132400808185FD14C080818E77808337D5A114A7
S1132410B10449F0F50180819181E80EF91EF18241
S1132420E08285E012C0BDD2882351F00EC0F801CD
S113243081918F01F60180832197FFEFEF1AFF0A44
S11324402097E9F680E001C080E0DF91CF911F91F1
S11324500F91FF90EF90DF90CF90BF90AF909F903F
S11324608F9008958F929F92AF92BF92CF92DF92F6
S1132470EF92FF920F931F93CF93DF938C01EB01A5
S11324805A018FD281113EC0A114B10439F0F50173
S113249080819181C81BD90B080F191F209789F1DE
S11324A0E12CF12C0F2EF8EE8F2E912CF02D0F2E07
S11324B0F1EFCF2ED12CF02DF401808185FD14C0D5
S11324C080818B778083DAD4A114B10449F0F501BB
S11324D080819181E80EF91EF182E08285E012C0CC
S11324E060D2882351F00EC0F6018081F8018193F7
S11324F08F012197FFEFEF1AFF0A2097E9F680E09A
S113250001C080E0DF91CF911F910F91FF90EF9078
S1132510DF90CF90BF90AF909F908F9008958F924F
S11325209F92AF92BF92CF92DF92EF92FF920F935E
S11325301F93CF93DF938C01EB015A0132D28111A7
S113254043C0CE010197080F191FA114B10439F03B
S1132550F50180819181C81BD90B081B190B2097A9
S113256091F1E12CF12C0F2EF8EE8F2E912CF02D01
S11325700F2EF1EFCF2ED12CF02DF401808185FDAB
S113258014C080818B77808379D4A114B10449F07D
S1132590F50180819181E80EF91EF182E08285E0E7
S11325A013C0FFD1882359F00FC0F6018081F801D0
S11325B08083015011092197FFEFEF1AFF0A20973A
S11325C0E1F680E001C080E0DF91CF911F910F918F
S11325D0FF90EF90DF90CF90BF90AF909F908F903F
S11325E00895CF92DF92FF920F931F93CF93DF93BF
S11325F020919101309192012617370758F0611507
S1132600710539F4E8EEF0E020812E7720839B01F8
S113261001C09B01A82FB92F10E0E8EEF0E063EFB2
S113262070E042EF50E00F2EF1EFCF2ED12CF02DC1
S113263001E0F12C2FC08EB3882309F441C085300A
S113264009F440C0808183FD3FC0808182FD31C098
S1132650808180FF1FC0EB011881EA01888190E02E
S1132660912B2115310579F08031910560F41D918C
S1132670E60118832150310901962115310519F01D
S113268080319105A1F7102F409709F01F2D80810B
S11326908E7780832115310571F61111CCCF09C0D5
S11326A08EB3882399F0853099F0808183FF03C02D
S11326B011C0E8EEF0E0808182FFF2CF80E00BC031
S11326C082E009C083E007C081E005C082E003C066
S11326D083E001C081E0DF91CF911F910F91FF90C2
S11326E0DF90CF900895CF92DF92FF920F931F93C4
S11326F0CF93DF93209191013091920126173707F0
S113270058F06115710539F4E8EEF0E020812E7778
S113271020839B0101C09B01E82FF92F10E0A8EE54
S1132720B0E063EF70E042EF50E00F2EF1EFCF2EF8
S1132730D12CF02D01E0F12C30C08EB3882309F4A4
S113274042C0853009F441C08C9183FD40C08C9116
S113275082FD32C08C9180FF20C0EB011881EA0118
S1132760888190E0912B2115310581F0803191050C
S113277068F41491E60118833196215031090196C9
S11327802115310519F08031910599F7102F4097E3
S113279009F01F2D8C918E778C932115310569F6E4
S11327A01111CBCF09C08EB3882399F0853099F0ED
S11327B0808183FF03C011C0E8EEF0E0808182FFD6
S11327C0F2CF80E00BC082E009C083E007C081E063
S11327D005C082E003C083E001C081E0DF91CF91B6
S11327E01F910F91FF90DF90CF9008954F925F92C9
S11327F06F927F928F929F92AF92BF92CF92DF920D
S1132800EF92FF920F931F93CF93DF930091910167
S1132810109192010617170758F06115710539F4E4
S1132820E8EEF0E020812E7720838B0101C08B013C
S1132830E82EF92E90E0C8EED0E00F2EF3EFAF2E85
S1132840B12CF02D0F2EF2EF6F2E712CF02D0F2ED8
S1132850F1EFCF2ED12CF02D55245394412C39C0B7
S11328608EB3882309F44BC0853009F44AC08881AB
S113287083FD49C0888182FD3BC0888180FF29C0D7
S1132880F5018081F3018080912C982A01151105AE
S1132890B9F0F0E18F16910498F4C70108D3F6015A
S11328A08083FFEFEF1AFF0A015011098FEF881A96
S11328B0980A0115110521F0E0E18E16910469F7DB
S11328C0952DF0E18F16910409F0942D88818E776F
S11328D088830115110521F69111C2CF09C08EB369
S11328E0882399F0853099F0808183FF03C011C05B
S11328F0E8EEF0E0808182FFF2CF80E00BC082E05E
S113290009C083E007C081E005C082E003C083E022
S113291001C081E0DF91CF911F910F91FF90EF9063
S1132920DF90CF90BF90AF909F908F907F906F90EB
S11329305F904F9008958F708093E900EBEEF0E084
S1132940808181608083EDEEF0E010826093EC0082
S113295040838091EE00881F8827881F0895809106
S11329608B0188233CF0E8EEF0E012C08EB38111B5
S113297003C00895E8EEF0E0808182FFF7CFE8EE2F
S1132980F0E080818B77808308958EB3882341F0B3
S1132990808180FFFACFE8EEF0E080818E7780833B
S11329A008950F931F93CF93DF932091E400309108
S11329B0E50065E6ACEEB0E0E8EEF0E00BEE10E02A
S11329C044EE50E001C09C019C91892F817090FDE0
S11329D01CC01FC08EB3882381F0853081F0E801CC
S11329E0888185FD0EC0EA018881998128173907FD
S11329F059F3615041F784E00FC082E00DC083E0D9
S1132A000BC081E009C080E007C0808180FFE2CF75
S1132A10FACF908192FFDECFDF91CF911F910F917A
S1132A2008950F931F93CF93DF9347D04ED0C8EDF3
S1132A30D0E088818F7788838881806888838881C3
S1132A408F7D888319BC1EBA1092890100EE10E0B4
S1132A50F80180818B7F808388818160888342E153
S1132A6060E080E068DFE1EEF0E080818E7F8083CB
S1132A70E2EEF0E0808181608083808188608083E1
S1132A80F80180818E7F8083888180618883DF91D3
S1132A90CF911F910F910895E8EDF0E080818F7E32
S1132AA08083E7EDF0E080818160808384E082BFF1
S1132AB081E080938A01B5CF0895E8EDF0E080814C
S1132AC08E7F80831092E20008951092DA001092B3
S1132AD0E10008951F920F920FB60F9211242F93C5
S1132AE03F934F935F936F937F938F939F93AF9392
S1132AF0BF93EF93FF938091DA0080FF1DC0809114
S1132B00D80080FF19C0EAEDF0E080818E7F8083D9
S1132B108091D90080FF0CC080E189BD82E189BD2C
S1132B2009B400FEFDCF81E08EBB0E94530104C0B6
S1132B3019BC1EBA0E9458018091E10080FF15C0A3
S1132B408091E20080FF11C0E2EEF0E080818E7F90
S1132B508083808180618083E8EDF0E08081806201
S1132B60808319BC85E08EBB88D18091E10084FF0D
S1132B702DC08091E20084FF29C080E189BD82E1FB
S1132B8089BD09B400FEFDCFE8EDF0E080818F7DC2
S1132B908083E1EEF0E080818F7E8083E2EEF0E0DE
S1132BA080818F7E80838081816080838091890190
S1132BB0882319F084E08EBB08C08091E300882349
S1132BC014F081E001C083E08EBB57D18091E10015
S1132BD083FF1DC08091E20083FF19C0E1EEF0E0A5
S1132BE08081877F808382E08EBB109289018081FF
S1132BF08E7F8083E2EEF0E080818E7F808380810F
S1132C008061808342E160E080E095DE36D1FF910F
S1132C10EF91BF91AF919F918F917F916F915F9150
S1132C204F913F912F910F900FBE0F901F901895C9
S1132C301F93CF93DF9300D01F92CDB7DEB7EBE89D
S1132C40F1E023E931E0A1EFB0E08C918193E21748
S1132C50F307D9F712D18091E80083FFF2C0EBE8C3
S1132C60F1E090818181853009F468C030F48130CD
S1132C7079F168F0833061F1E4C0883009F4B0C0C0
S1132C80893009F4BDC0863009F0DBC079C09038C2
S1132C9081F0923809F0D5C080918F018F70E9EEF0
S1132CA0F0E080839091EB0095FB992790F91082D6
S1132CB001C090E0E8EEF0E08081877F8083A1EF9F
S1132CC0B0E09C931C9280818E77808348DEB9C0EB
S1132CD0923009F4C5C0B5C080918F018F7009F49A
S1132CE0B0C08093E9009091EB0090FF1EC09091DA
S1132CF08C01933031F4EBEEF0E0808180628083CC
S1132D0014C0EBEEF0E090819061908321E030E01C
S1132D10A90102C0440F551F8A95E2F7AAEEB0E05C
S1132D204C931C928081886080831092E900E8EEC5
S1132D30F0E08081877F808312DE83C0911181C09F
S1132D4010918D011F77E3EEF0E080818078812B74
S1132D508083E8EEF0E08081877F808300DEE8EE08
S1132D60F0E0808180FFFDCFE3EEF0E080818068B9
S1132D708083111102C082E001C083E08EBB61C078
S1132D809058923008F05DC0EBE8F1E09E012D5FB1
S1132D903F4FAE014F5F5F4F6481828193810E94F8
S1132DA08D01BC01892B09F44CC0E8EEF0E0808170
S1132DB0877F80838B81811104C089819A8193DC10
S1132DC009C0813021F489819A8110DD03C0898191
S1132DD09A8107DCE8EEF0E080818B77808331C054
S1132DE0903879F5E8EEF0E08081877F80838091E8
S1132DF089018093F10080818E778083B0DD21C0CA
S1132E0091111FC080918D018230D8F4E8EEF0E07A
S1132E108081877F808380918D01809389019FDDEC
S1132E2080918901882319F084E08EBB08C08091C9
S1132E30E300882314F081E001C084E08EBB0E948B
S1132E405D018091E80083FF11C0E8EEF0E080812D
S1132E50877F8083EBEEF0E080818062808306C010
S1132E6080918D01882309F437CF5FCF0F900F90A5
S1132E700F90DF91CF911F9108950895CF938EB352
S1132E80882399F0C091E900CF708091EC00982FCD
S1132E90917080FD90E8C92B1092E9008091E800C0
S1132EA083FDC6DECF70C093E900CF910895F999F0
S1132EB0FECF92BD81BDF89A992780B50895262F3B
S1132EC0F999FECF92BD81BDF89A019700B402161C
S1132ED039F01FBA20BD0FB6F894FA9AF99A0FBECA
S1092EE00895F894FFCFF1
S1132EE61C03300030003000320030003000300067
S1132EF631003200330034003500000000000902BE
S1132F062000010100C0320904000002FF00000095
S1132F160705820240000A0705020240000A0180F2
S1132F2601008101009001009101019201189401B0
S1132F36219803069E0301A10100A4030032332055
S1132F4600C00100011289AB45CDD888FF1289ABB8
S1132F5645CDD888FF4156524953505F4D4B3200F8
S9030000FC
